{
  "abi": [
    {
      "inputs": [
        {
          "internalType": "string",
          "name": "name",
          "type": "string"
        },
        {
          "internalType": "string",
          "name": "symbol",
          "type": "string"
        },
        {
          "internalType": "address",
          "name": "initialOwner",
          "type": "address"
        }
      ],
      "stateMutability": "nonpayable",
      "type": "constructor"
    },
    {
      "inputs": [
        {
          "internalType": "address",
          "name": "sender",
          "type": "address"
        },
        {
          "internalType": "uint256",
          "name": "tokenId",
          "type": "uint256"
        },
        {
          "internalType": "address",
          "name": "owner",
          "type": "address"
        }
      ],
      "name": "ERC721IncorrectOwner",
      "type": "error"
    },
    {
      "inputs": [
        {
          "internalType": "address",
          "name": "operator",
          "type": "address"
        },
        {
          "internalType": "uint256",
          "name": "tokenId",
          "type": "uint256"
        }
      ],
      "name": "ERC721InsufficientApproval",
      "type": "error"
    },
    {
      "inputs": [
        {
          "internalType": "address",
          "name": "approver",
          "type": "address"
        }
      ],
      "name": "ERC721InvalidApprover",
      "type": "error"
    },
    {
      "inputs": [
        {
          "internalType": "address",
          "name": "operator",
          "type": "address"
        }
      ],
      "name": "ERC721InvalidOperator",
      "type": "error"
    },
    {
      "inputs": [
        {
          "internalType": "address",
          "name": "owner",
          "type": "address"
        }
      ],
      "name": "ERC721InvalidOwner",
      "type": "error"
    },
    {
      "inputs": [
        {
          "internalType": "address",
          "name": "receiver",
          "type": "address"
        }
      ],
      "name": "ERC721InvalidReceiver",
      "type": "error"
    },
    {
      "inputs": [
        {
          "internalType": "address",
          "name": "sender",
          "type": "address"
        }
      ],
      "name": "ERC721InvalidSender",
      "type": "error"
    },
    {
      "inputs": [
        {
          "internalType": "uint256",
          "name": "tokenId",
          "type": "uint256"
        }
      ],
      "name": "ERC721NonexistentToken",
      "type": "error"
    },
    {
      "inputs": [
        {
          "internalType": "address",
          "name": "owner",
          "type": "address"
        }
      ],
      "name": "OwnableInvalidOwner",
      "type": "error"
    },
    {
      "inputs": [
        {
          "internalType": "address",
          "name": "account",
          "type": "address"
        }
      ],
      "name": "OwnableUnauthorizedAccount",
      "type": "error"
    },
    {
      "anonymous": false,
      "inputs": [
        {
          "indexed": true,
          "internalType": "address",
          "name": "owner",
          "type": "address"
        },
        {
          "indexed": true,
          "internalType": "address",
          "name": "approved",
          "type": "address"
        },
        {
          "indexed": true,
          "internalType": "uint256",
          "name": "tokenId",
          "type": "uint256"
        }
      ],
      "name": "Approval",
      "type": "event"
    },
    {
      "anonymous": false,
      "inputs": [
        {
          "indexed": true,
          "internalType": "address",
          "name": "owner",
          "type": "address"
        },
        {
          "indexed": true,
          "internalType": "address",
          "name": "operator",
          "type": "address"
        },
        {
          "indexed": false,
          "internalType": "bool",
          "name": "approved",
          "type": "bool"
        }
      ],
      "name": "ApprovalForAll",
      "type": "event"
    },
    {
      "anonymous": false,
      "inputs": [
        {
          "indexed": false,
          "internalType": "uint256",
          "name": "_fromTokenId",
          "type": "uint256"
        },
        {
          "indexed": false,
          "internalType": "uint256",
          "name": "_toTokenId",
          "type": "uint256"
        }
      ],
      "name": "BatchMetadataUpdate",
      "type": "event"
    },
    {
      "anonymous": false,
      "inputs": [
        {
          "indexed": false,
          "internalType": "uint256",
          "name": "_tokenId",
          "type": "uint256"
        }
      ],
      "name": "MetadataUpdate",
      "type": "event"
    },
    {
      "anonymous": false,
      "inputs": [
        {
          "indexed": true,
          "internalType": "address",
          "name": "to",
          "type": "address"
        },
        {
          "indexed": true,
          "internalType": "uint256",
          "name": "tokenId",
          "type": "uint256"
        }
      ],
      "name": "MintEvent",
      "type": "event"
    },
    {
      "anonymous": false,
      "inputs": [
        {
          "indexed": true,
          "internalType": "address",
          "name": "previousOwner",
          "type": "address"
        },
        {
          "indexed": true,
          "internalType": "address",
          "name": "newOwner",
          "type": "address"
        }
      ],
      "name": "OwnershipTransferred",
      "type": "event"
    },
    {
      "anonymous": false,
      "inputs": [
        {
          "indexed": true,
          "internalType": "address",
          "name": "from",
          "type": "address"
        },
        {
          "indexed": true,
          "internalType": "address",
          "name": "to",
          "type": "address"
        },
        {
          "indexed": true,
          "internalType": "uint256",
          "name": "tokenId",
          "type": "uint256"
        }
      ],
      "name": "Transfer",
      "type": "event"
    },
    {
      "inputs": [
        {
          "internalType": "address",
          "name": "to",
          "type": "address"
        },
        {
          "internalType": "uint256",
          "name": "tokenId",
          "type": "uint256"
        }
      ],
      "name": "approve",
      "outputs": [],
      "stateMutability": "nonpayable",
      "type": "function"
    },
    {
      "inputs": [
        {
          "internalType": "address",
          "name": "owner",
          "type": "address"
        }
      ],
      "name": "balanceOf",
      "outputs": [
        {
          "internalType": "uint256",
          "name": "",
          "type": "uint256"
        }
      ],
      "stateMutability": "view",
      "type": "function"
    },
    {
      "inputs": [
        {
          "internalType": "uint256",
          "name": "tokenId",
          "type": "uint256"
        }
      ],
      "name": "getApproved",
      "outputs": [
        {
          "internalType": "address",
          "name": "",
          "type": "address"
        }
      ],
      "stateMutability": "view",
      "type": "function"
    },
    {
      "inputs": [
        {
          "internalType": "address",
          "name": "owner",
          "type": "address"
        },
        {
          "internalType": "address",
          "name": "operator",
          "type": "address"
        }
      ],
      "name": "isApprovedForAll",
      "outputs": [
        {
          "internalType": "bool",
          "name": "",
          "type": "bool"
        }
      ],
      "stateMutability": "view",
      "type": "function"
    },
    {
      "inputs": [
        {
          "internalType": "address",
          "name": "to",
          "type": "address"
        },
        {
          "internalType": "uint256",
          "name": "tokenId",
          "type": "uint256"
        }
      ],
      "name": "mint",
      "outputs": [],
      "stateMutability": "nonpayable",
      "type": "function"
    },
    {
      "inputs": [],
      "name": "name",
      "outputs": [
        {
          "internalType": "string",
          "name": "",
          "type": "string"
        }
      ],
      "stateMutability": "view",
      "type": "function"
    },
    {
      "inputs": [],
      "name": "owner",
      "outputs": [
        {
          "internalType": "address",
          "name": "",
          "type": "address"
        }
      ],
      "stateMutability": "view",
      "type": "function"
    },
    {
      "inputs": [
        {
          "internalType": "uint256",
          "name": "tokenId",
          "type": "uint256"
        }
      ],
      "name": "ownerOf",
      "outputs": [
        {
          "internalType": "address",
          "name": "",
          "type": "address"
        }
      ],
      "stateMutability": "view",
      "type": "function"
    },
    {
      "inputs": [],
      "name": "renounceOwnership",
      "outputs": [],
      "stateMutability": "nonpayable",
      "type": "function"
    },
    {
      "inputs": [
        {
          "internalType": "address",
          "name": "from",
          "type": "address"
        },
        {
          "internalType": "address",
          "name": "to",
          "type": "address"
        },
        {
          "internalType": "uint256",
          "name": "tokenId",
          "type": "uint256"
        }
      ],
      "name": "safeTransferFrom",
      "outputs": [],
      "stateMutability": "nonpayable",
      "type": "function"
    },
    {
      "inputs": [
        {
          "internalType": "address",
          "name": "from",
          "type": "address"
        },
        {
          "internalType": "address",
          "name": "to",
          "type": "address"
        },
        {
          "internalType": "uint256",
          "name": "tokenId",
          "type": "uint256"
        },
        {
          "internalType": "bytes",
          "name": "data",
          "type": "bytes"
        }
      ],
      "name": "safeTransferFrom",
      "outputs": [],
      "stateMutability": "nonpayable",
      "type": "function"
    },
    {
      "inputs": [
        {
          "internalType": "address",
          "name": "operator",
          "type": "address"
        },
        {
          "internalType": "bool",
          "name": "approved",
          "type": "bool"
        }
      ],
      "name": "setApprovalForAll",
      "outputs": [],
      "stateMutability": "nonpayable",
      "type": "function"
    },
    {
      "inputs": [
        {
          "internalType": "bytes4",
          "name": "interfaceId",
          "type": "bytes4"
        }
      ],
      "name": "supportsInterface",
      "outputs": [
        {
          "internalType": "bool",
          "name": "",
          "type": "bool"
        }
      ],
      "stateMutability": "view",
      "type": "function"
    },
    {
      "inputs": [],
      "name": "symbol",
      "outputs": [
        {
          "internalType": "string",
          "name": "",
          "type": "string"
        }
      ],
      "stateMutability": "view",
      "type": "function"
    },
    {
      "inputs": [
        {
          "internalType": "uint256",
          "name": "tokenId",
          "type": "uint256"
        }
      ],
      "name": "tokenURI",
      "outputs": [
        {
          "internalType": "string",
          "name": "",
          "type": "string"
        }
      ],
      "stateMutability": "view",
      "type": "function"
    },
    {
      "inputs": [
        {
          "internalType": "address",
          "name": "from",
          "type": "address"
        },
        {
          "internalType": "address",
          "name": "to",
          "type": "address"
        },
        {
          "internalType": "uint256",
          "name": "tokenId",
          "type": "uint256"
        }
      ],
      "name": "transferFrom",
      "outputs": [],
      "stateMutability": "nonpayable",
      "type": "function"
    },
    {
      "inputs": [
        {
          "internalType": "address",
          "name": "newOwner",
          "type": "address"
        }
      ],
      "name": "transferOwnership",
      "outputs": [],
      "stateMutability": "nonpayable",
      "type": "function"
    }
  ],
  "bytecode": {
    "object": "0x60806040523480156200001157600080fd5b5060405162001bbc38038062001bbc833981016040819052620000349162000189565b8083836000620000458382620002a5565b506001620000548282620002a5565b50505062000068816200007260201b60201c565b5050505062000371565b600780546001600160a01b038381166001600160a01b0319831681179093556040519116919082907f8be0079c531659141344cd1fd0a4f28419497f9722a3daafe3b4186f6b6457e090600090a35050565b634e487b7160e01b600052604160045260246000fd5b600082601f830112620000ec57600080fd5b81516001600160401b0380821115620001095762000109620000c4565b604051601f8301601f19908116603f01168101908282118183101715620001345762000134620000c4565b816040528381526020925086838588010111156200015157600080fd5b600091505b8382101562000175578582018301518183018401529082019062000156565b600093810190920192909252949350505050565b6000806000606084860312156200019f57600080fd5b83516001600160401b0380821115620001b757600080fd5b620001c587838801620000da565b94506020860151915080821115620001dc57600080fd5b50620001eb86828701620000da565b604086015190935090506001600160a01b03811681146200020b57600080fd5b809150509250925092565b600181811c908216806200022b57607f821691505b6020821081036200024c57634e487b7160e01b600052602260045260246000fd5b50919050565b601f821115620002a057600081815260208120601f850160051c810160208610156200027b5750805b601f850160051c820191505b818110156200029c5782815560010162000287565b5050505b505050565b81516001600160401b03811115620002c157620002c1620000c4565b620002d981620002d2845462000216565b8462000252565b602080601f831160018114620003115760008415620002f85750858301515b600019600386901b1c1916600185901b1785556200029c565b600085815260208120601f198616915b82811015620003425788860151825594840194600190910190840162000321565b5085821015620003615787850151600019600388901b60f8161c191681555b5050505050600190811b01905550565b61183b80620003816000396000f3fe608060405234801561001057600080fd5b506004361061011b5760003560e01c806370a08231116100b2578063a22cb46511610081578063c87b56dd11610066578063c87b56dd14610251578063e985e9c514610264578063f2fde38b146102a057600080fd5b8063a22cb4651461022b578063b88d4fde1461023e57600080fd5b806370a08231146101e9578063715018a61461020a5780638da5cb5b1461021257806395d89b411461022357600080fd5b806323b872dd116100ee57806323b872dd1461019d57806340c10f19146101b057806342842e0e146101c35780636352211e146101d657600080fd5b806301ffc9a71461012057806306fdde0314610148578063081812fc1461015d578063095ea7b314610188575b600080fd5b61013361012e36600461143a565b6102b3565b60405190151581526020015b60405180910390f35b6101506102c4565b60405161013f91906114c5565b61017061016b3660046114d8565b610356565b6040516001600160a01b03909116815260200161013f565b61019b61019636600461150d565b61037d565b005b61019b6101ab366004611537565b61046a565b61019b6101be36600461150d565b6104be565b61019b6101d1366004611537565b6105ba565b6101706101e43660046114d8565b6105d5565b6101fc6101f7366004611573565b610627565b60405190815260200161013f565b61019b610688565b6007546001600160a01b0316610170565b61015061069c565b61019b61023936600461158e565b6106ab565b61019b61024c3660046115f9565b6106ba565b61015061025f3660046114d8565b610715565b6101336102723660046116f3565b6001600160a01b03918216600090815260056020908152604080832093909416825291909152205460ff1690565b61019b6102ae366004611573565b610720565b60006102be82610777565b92915050565b6060600080546102d390611726565b80601f01602080910402602001604051908101604052809291908181526020018280546102ff90611726565b801561034c5780601f106103215761010080835404028352916020019161034c565b820191906000526020600020905b81548152906001019060200180831161032f57829003601f168201915b5050505050905090565b6000610361826107cd565b506000908152600460205260409020546001600160a01b031690565b6000610388826105d5565b9050806001600160a01b0316836001600160a01b0316036103e5576040517f5b08ba180000000000000000000000000000000000000000000000000000000081526001600160a01b03821660048201526024015b60405180910390fd5b336001600160a01b0382161480159061042257506001600160a01b038116600090815260056020908152604080832033845290915290205460ff16155b1561045b576040517fa9fbf51f0000000000000000000000000000000000000000000000000000000081523360048201526024016103dc565b610465838361081e565b505050565b61047433826108a4565b6104b3576040517f177e802f000000000000000000000000000000000000000000000000000000008152336004820152602481018290526044016103dc565b610465838383610923565b6104c6610b2c565b60008181526008602052604090205460ff161561053f576040517f08c379a000000000000000000000000000000000000000000000000000000000815260206004820152601460248201527f546f6b656e20616c7265616479206d696e74656400000000000000000000000060448201526064016103dc565b600081815260086020526040902080547fffffffffffffffffffffffffffffffffffffffffffffffffffffffffffffff001660011790556105808282610b72565b60405181906001600160a01b038416907f3fffaa5804a26fcec0d70b1d0fb0a2d0031df3a5f9c8af2127c2f4360e97b46390600090a35050565b610465838383604051806020016040528060008152506106ba565b6000818152600260205260408120546001600160a01b0316806102be576040517f7e273289000000000000000000000000000000000000000000000000000000008152600481018490526024016103dc565b60006001600160a01b03821661066c576040517f89c62b64000000000000000000000000000000000000000000000000000000008152600060048201526024016103dc565b506001600160a01b031660009081526003602052604090205490565b610690610b2c565b61069a6000610cdc565b565b6060600180546102d390611726565b6106b6338383610d46565b5050565b6106c433836108a4565b610703576040517f177e802f000000000000000000000000000000000000000000000000000000008152336004820152602481018390526044016103dc565b61070f84848484610e27565b50505050565b60606102be82610e7f565b610728610b2c565b6001600160a01b03811661076b576040517f1e4fbdf7000000000000000000000000000000000000000000000000000000008152600060048201526024016103dc565b61077481610cdc565b50565b60007fffffffff0000000000000000000000000000000000000000000000000000000082167f490649060000000000000000000000000000000000000000000000000000000014806102be57506102be82610f87565b6000818152600260205260409020546001600160a01b0316610774576040517f7e273289000000000000000000000000000000000000000000000000000000008152600481018290526024016103dc565b600081815260046020526040902080547fffffffffffffffffffffffff0000000000000000000000000000000000000000166001600160a01b038416908117909155819061086b826105d5565b6001600160a01b03167f8c5be1e5ebec7d5bd14f71427d1e84f3dd0314c0f7b2291e5b200ac8c7c3b92560405160405180910390a45050565b6000806108b0836105d5565b9050806001600160a01b0316846001600160a01b031614806108f757506001600160a01b0380821660009081526005602090815260408083209388168352929052205460ff165b8061091b5750836001600160a01b031661091084610356565b6001600160a01b0316145b949350505050565b600061092e826105d5565b9050836001600160a01b0316816001600160a01b031614610995576040517f64283d7b0000000000000000000000000000000000000000000000000000000081526001600160a01b03808616600483015260248201849052821660448201526064016103dc565b6001600160a01b0383166109d8576040517f64a0ae92000000000000000000000000000000000000000000000000000000008152600060048201526024016103dc565b6109e1826105d5565b9050836001600160a01b0316816001600160a01b031614610a48576040517f64283d7b0000000000000000000000000000000000000000000000000000000081526001600160a01b03808616600483015260248201849052821660448201526064016103dc565b600082815260046020908152604080832080547fffffffffffffffffffffffff00000000000000000000000000000000000000001690556001600160a01b038716835260039091528120805460019290610aa3908490611779565b90915550506001600160a01b03808416600081815260036020908152604080832080546001019055868352600290915280822080547fffffffffffffffffffffffff000000000000000000000000000000000000000016841790555185938816917fddf252ad1be2c89b69c2b068fc378daa952ba7f163c4a11628f55a4df523b3ef91a461070f565b6007546001600160a01b0316331461069a576040517f118cdaa70000000000000000000000000000000000000000000000000000000081523360048201526024016103dc565b6001600160a01b038216610bb5576040517f64a0ae92000000000000000000000000000000000000000000000000000000008152600060048201526024016103dc565b6000818152600260205260409020546001600160a01b031615610c07576040517f73c6ac6e000000000000000000000000000000000000000000000000000000008152600060048201526024016103dc565b6000818152600260205260409020546001600160a01b031615610c59576040517f73c6ac6e000000000000000000000000000000000000000000000000000000008152600060048201526024016103dc565b6001600160a01b038216600081815260036020908152604080832080546001019055848352600290915280822080547fffffffffffffffffffffffff0000000000000000000000000000000000000000168417905551839291907fddf252ad1be2c89b69c2b068fc378daa952ba7f163c4a11628f55a4df523b3ef908290a45050565b600780546001600160a01b038381167fffffffffffffffffffffffff0000000000000000000000000000000000000000831681179093556040519116919082907f8be0079c531659141344cd1fd0a4f28419497f9722a3daafe3b4186f6b6457e090600090a35050565b816001600160a01b0316836001600160a01b031603610d9c576040517f5b08ba180000000000000000000000000000000000000000000000000000000081526001600160a01b03841660048201526024016103dc565b6001600160a01b0383811660008181526005602090815260408083209487168084529482529182902080547fffffffffffffffffffffffffffffffffffffffffffffffffffffffffffffff001686151590811790915591519182527f17307eab39ab6107e8899845ad3d59bd9653f200f220920489ca2b5937696c31910160405180910390a3505050565b610e32848484610923565b610e3e8484848461106a565b61070f576040517f64a0ae920000000000000000000000000000000000000000000000000000000081526001600160a01b03841660048201526024016103dc565b6060610e8a826107cd565b60008281526006602052604081208054610ea390611726565b80601f0160208091040260200160405190810160405280929190818152602001828054610ecf90611726565b8015610f1c5780601f10610ef157610100808354040283529160200191610f1c565b820191906000526020600020905b815481529060010190602001808311610eff57829003601f168201915b505050505090506000610f3a60408051602081019091526000815290565b90508051600003610f4c575092915050565b815115610f7e578082604051602001610f669291906117b3565b60405160208183030381529060405292505050919050565b61091b846111f8565b60007fffffffff0000000000000000000000000000000000000000000000000000000082167f80ac58cd00000000000000000000000000000000000000000000000000000000148061101a57507fffffffff0000000000000000000000000000000000000000000000000000000082167f5b5e139f00000000000000000000000000000000000000000000000000000000145b806102be57507f01ffc9a7000000000000000000000000000000000000000000000000000000007fffffffff000000000000000000000000000000000000000000000000000000008316146102be565b60006001600160a01b0384163b156111ed576040517f150b7a020000000000000000000000000000000000000000000000000000000081526001600160a01b0385169063150b7a02906110c79033908990889088906004016117e2565b6020604051808303816000875af1925050508015611120575060408051601f3d9081017fffffffffffffffffffffffffffffffffffffffffffffffffffffffffffffffe016820190925261111d9181019061181e565b60015b6111a2573d80801561114e576040519150601f19603f3d011682016040523d82523d6000602084013e611153565b606091505b50805160000361119a576040517f64a0ae920000000000000000000000000000000000000000000000000000000081526001600160a01b03861660048201526024016103dc565b805181602001fd5b7fffffffff00000000000000000000000000000000000000000000000000000000167f150b7a020000000000000000000000000000000000000000000000000000000014905061091b565b506001949350505050565b6060611203826107cd565b600061121a60408051602081019091526000815290565b9050600081511161123a5760405180602001604052806000815250611265565b806112448461126c565b6040516020016112559291906117b3565b6040516020818303038152906040525b9392505050565b606060006112798361132a565b600101905060008167ffffffffffffffff811115611299576112996115ca565b6040519080825280601f01601f1916602001820160405280156112c3576020820181803683370190505b5090508181016020015b7fffffffffffffffffffffffffffffffffffffffffffffffffffffffffffffffff017f3031323334353637383961626364656600000000000000000000000000000000600a86061a8153600a85049450846112cd57509392505050565b6000807a184f03e93ff9f4daa797ed6e38ed64bf6a1f0100000000000000008310611373577a184f03e93ff9f4daa797ed6e38ed64bf6a1f010000000000000000830492506040015b6d04ee2d6d415b85acef8100000000831061139f576d04ee2d6d415b85acef8100000000830492506020015b662386f26fc1000083106113bd57662386f26fc10000830492506010015b6305f5e10083106113d5576305f5e100830492506008015b61271083106113e957612710830492506004015b606483106113fb576064830492506002015b600a83106102be5760010192915050565b7fffffffff000000000000000000000000000000000000000000000000000000008116811461077457600080fd5b60006020828403121561144c57600080fd5b81356112658161140c565b60005b8381101561147257818101518382015260200161145a565b50506000910152565b60008151808452611493816020860160208601611457565b601f017fffffffffffffffffffffffffffffffffffffffffffffffffffffffffffffffe0169290920160200192915050565b602081526000611265602083018461147b565b6000602082840312156114ea57600080fd5b5035919050565b80356001600160a01b038116811461150857600080fd5b919050565b6000806040838503121561152057600080fd5b611529836114f1565b946020939093013593505050565b60008060006060848603121561154c57600080fd5b611555846114f1565b9250611563602085016114f1565b9150604084013590509250925092565b60006020828403121561158557600080fd5b611265826114f1565b600080604083850312156115a157600080fd5b6115aa836114f1565b9150602083013580151581146115bf57600080fd5b809150509250929050565b7f4e487b7100000000000000000000000000000000000000000000000000000000600052604160045260246000fd5b6000806000806080858703121561160f57600080fd5b611618856114f1565b9350611626602086016114f1565b925060408501359150606085013567ffffffffffffffff8082111561164a57600080fd5b818701915087601f83011261165e57600080fd5b813581811115611670576116706115ca565b604051601f82017fffffffffffffffffffffffffffffffffffffffffffffffffffffffffffffffe0908116603f011681019083821181831017156116b6576116b66115ca565b816040528281528a60208487010111156116cf57600080fd5b82602086016020830137600060208483010152809550505050505092959194509250565b6000806040838503121561170657600080fd5b61170f836114f1565b915061171d602084016114f1565b90509250929050565b600181811c9082168061173a57607f821691505b602082108103611773577f4e487b7100000000000000000000000000000000000000000000000000000000600052602260045260246000fd5b50919050565b818103818111156102be577f4e487b7100000000000000000000000000000000000000000000000000000000600052601160045260246000fd5b600083516117c5818460208801611457565b8351908301906117d9818360208801611457565b01949350505050565b60006001600160a01b03808716835280861660208401525083604083015260806060830152611814608083018461147b565b9695505050505050565b60006020828403121561183057600080fd5b81516112658161140c56",
    "linkReferences": {}
  },
  "methodIdentifiers": {
    "approve(address,uint256)": "095ea7b3",
    "balanceOf(address)": "70a08231",
    "getApproved(uint256)": "081812fc",
    "isApprovedForAll(address,address)": "e985e9c5",
    "mint(address,uint256)": "40c10f19",
    "name()": "06fdde03",
    "owner()": "8da5cb5b",
    "ownerOf(uint256)": "6352211e",
    "renounceOwnership()": "715018a6",
    "safeTransferFrom(address,address,uint256)": "42842e0e",
    "safeTransferFrom(address,address,uint256,bytes)": "b88d4fde",
    "setApprovalForAll(address,bool)": "a22cb465",
    "supportsInterface(bytes4)": "01ffc9a7",
    "symbol()": "95d89b41",
    "tokenURI(uint256)": "c87b56dd",
    "transferFrom(address,address,uint256)": "23b872dd",
    "transferOwnership(address)": "f2fde38b"
  },
  "id": 32
}