{
  "abi": [
    {
      "inputs": [
        {
          "internalType": "string",
          "name": "name",
          "type": "string"
        },
        {
          "internalType": "string",
          "name": "symbol",
          "type": "string"
        },
        {
          "internalType": "address",
          "name": "initialOwner",
          "type": "address"
        }
      ],
      "stateMutability": "nonpayable",
      "type": "constructor"
    },
    {
      "inputs": [
        {
          "internalType": "address",
          "name": "sender",
          "type": "address"
        },
        {
          "internalType": "uint256",
          "name": "tokenId",
          "type": "uint256"
        },
        {
          "internalType": "address",
          "name": "owner",
          "type": "address"
        }
      ],
      "name": "ERC721IncorrectOwner",
      "type": "error"
    },
    {
      "inputs": [
        {
          "internalType": "address",
          "name": "operator",
          "type": "address"
        },
        {
          "internalType": "uint256",
          "name": "tokenId",
          "type": "uint256"
        }
      ],
      "name": "ERC721InsufficientApproval",
      "type": "error"
    },
    {
      "inputs": [
        {
          "internalType": "address",
          "name": "approver",
          "type": "address"
        }
      ],
      "name": "ERC721InvalidApprover",
      "type": "error"
    },
    {
      "inputs": [
        {
          "internalType": "address",
          "name": "operator",
          "type": "address"
        }
      ],
      "name": "ERC721InvalidOperator",
      "type": "error"
    },
    {
      "inputs": [
        {
          "internalType": "address",
          "name": "owner",
          "type": "address"
        }
      ],
      "name": "ERC721InvalidOwner",
      "type": "error"
    },
    {
      "inputs": [
        {
          "internalType": "address",
          "name": "receiver",
          "type": "address"
        }
      ],
      "name": "ERC721InvalidReceiver",
      "type": "error"
    },
    {
      "inputs": [
        {
          "internalType": "address",
          "name": "sender",
          "type": "address"
        }
      ],
      "name": "ERC721InvalidSender",
      "type": "error"
    },
    {
      "inputs": [
        {
          "internalType": "uint256",
          "name": "tokenId",
          "type": "uint256"
        }
      ],
      "name": "ERC721NonexistentToken",
      "type": "error"
    },
    {
      "inputs": [
        {
          "internalType": "address",
          "name": "owner",
          "type": "address"
        }
      ],
      "name": "OwnableInvalidOwner",
      "type": "error"
    },
    {
      "inputs": [
        {
          "internalType": "address",
          "name": "account",
          "type": "address"
        }
      ],
      "name": "OwnableUnauthorizedAccount",
      "type": "error"
    },
    {
      "anonymous": false,
      "inputs": [
        {
          "indexed": true,
          "internalType": "address",
          "name": "owner",
          "type": "address"
        },
        {
          "indexed": true,
          "internalType": "address",
          "name": "approved",
          "type": "address"
        },
        {
          "indexed": true,
          "internalType": "uint256",
          "name": "tokenId",
          "type": "uint256"
        }
      ],
      "name": "Approval",
      "type": "event"
    },
    {
      "anonymous": false,
      "inputs": [
        {
          "indexed": true,
          "internalType": "address",
          "name": "owner",
          "type": "address"
        },
        {
          "indexed": true,
          "internalType": "address",
          "name": "operator",
          "type": "address"
        },
        {
          "indexed": false,
          "internalType": "bool",
          "name": "approved",
          "type": "bool"
        }
      ],
      "name": "ApprovalForAll",
      "type": "event"
    },
    {
      "anonymous": false,
      "inputs": [
        {
          "indexed": false,
          "internalType": "uint256",
          "name": "_fromTokenId",
          "type": "uint256"
        },
        {
          "indexed": false,
          "internalType": "uint256",
          "name": "_toTokenId",
          "type": "uint256"
        }
      ],
      "name": "BatchMetadataUpdate",
      "type": "event"
    },
    {
      "anonymous": false,
      "inputs": [
        {
          "indexed": false,
          "internalType": "uint256",
          "name": "_tokenId",
          "type": "uint256"
        }
      ],
      "name": "MetadataUpdate",
      "type": "event"
    },
    {
      "anonymous": false,
      "inputs": [
        {
          "indexed": true,
          "internalType": "address",
          "name": "to",
          "type": "address"
        },
        {
          "indexed": true,
          "internalType": "uint256",
          "name": "tokenId",
          "type": "uint256"
        }
      ],
      "name": "MintEvent",
      "type": "event"
    },
    {
      "anonymous": false,
      "inputs": [
        {
          "indexed": true,
          "internalType": "address",
          "name": "previousOwner",
          "type": "address"
        },
        {
          "indexed": true,
          "internalType": "address",
          "name": "newOwner",
          "type": "address"
        }
      ],
      "name": "OwnershipTransferred",
      "type": "event"
    },
    {
      "anonymous": false,
      "inputs": [
        {
          "indexed": true,
          "internalType": "address",
          "name": "from",
          "type": "address"
        },
        {
          "indexed": true,
          "internalType": "address",
          "name": "to",
          "type": "address"
        },
        {
          "indexed": true,
          "internalType": "uint256",
          "name": "tokenId",
          "type": "uint256"
        }
      ],
      "name": "Transfer",
      "type": "event"
    },
    {
      "inputs": [
        {
          "internalType": "address",
          "name": "to",
          "type": "address"
        },
        {
          "internalType": "uint256",
          "name": "tokenId",
          "type": "uint256"
        }
      ],
      "name": "approve",
      "outputs": [],
      "stateMutability": "nonpayable",
      "type": "function"
    },
    {
      "inputs": [
        {
          "internalType": "address",
          "name": "owner",
          "type": "address"
        }
      ],
      "name": "balanceOf",
      "outputs": [
        {
          "internalType": "uint256",
          "name": "",
          "type": "uint256"
        }
      ],
      "stateMutability": "view",
      "type": "function"
    },
    {
      "inputs": [
        {
          "internalType": "uint256",
          "name": "tokenId",
          "type": "uint256"
        }
      ],
      "name": "getApproved",
      "outputs": [
        {
          "internalType": "address",
          "name": "",
          "type": "address"
        }
      ],
      "stateMutability": "view",
      "type": "function"
    },
    {
      "inputs": [
        {
          "internalType": "address",
          "name": "owner",
          "type": "address"
        },
        {
          "internalType": "address",
          "name": "operator",
          "type": "address"
        }
      ],
      "name": "isApprovedForAll",
      "outputs": [
        {
          "internalType": "bool",
          "name": "",
          "type": "bool"
        }
      ],
      "stateMutability": "view",
      "type": "function"
    },
    {
      "inputs": [
        {
          "internalType": "address",
          "name": "to",
          "type": "address"
        },
        {
          "internalType": "uint256",
          "name": "tokenId",
          "type": "uint256"
        }
      ],
      "name": "mint",
      "outputs": [],
      "stateMutability": "nonpayable",
      "type": "function"
    },
    {
      "inputs": [],
      "name": "name",
      "outputs": [
        {
          "internalType": "string",
          "name": "",
          "type": "string"
        }
      ],
      "stateMutability": "view",
      "type": "function"
    },
    {
      "inputs": [],
      "name": "owner",
      "outputs": [
        {
          "internalType": "address",
          "name": "",
          "type": "address"
        }
      ],
      "stateMutability": "view",
      "type": "function"
    },
    {
      "inputs": [
        {
          "internalType": "uint256",
          "name": "tokenId",
          "type": "uint256"
        }
      ],
      "name": "ownerOf",
      "outputs": [
        {
          "internalType": "address",
          "name": "",
          "type": "address"
        }
      ],
      "stateMutability": "view",
      "type": "function"
    },
    {
      "inputs": [
        {
          "internalType": "bytes32",
          "name": "_messageHashed",
          "type": "bytes32"
        },
        {
          "internalType": "uint8",
          "name": "_v",
          "type": "uint8"
        },
        {
          "internalType": "bytes32",
          "name": "_r",
          "type": "bytes32"
        },
        {
          "internalType": "bytes32",
          "name": "_s",
          "type": "bytes32"
        }
      ],
      "name": "recoverSigner",
      "outputs": [
        {
          "internalType": "address",
          "name": "",
          "type": "address"
        }
      ],
      "stateMutability": "pure",
      "type": "function"
    },
    {
      "inputs": [],
      "name": "renounceOwnership",
      "outputs": [],
      "stateMutability": "nonpayable",
      "type": "function"
    },
    {
      "inputs": [
        {
          "internalType": "address",
          "name": "from",
          "type": "address"
        },
        {
          "internalType": "address",
          "name": "to",
          "type": "address"
        },
        {
          "internalType": "uint256",
          "name": "tokenId",
          "type": "uint256"
        }
      ],
      "name": "safeTransferFrom",
      "outputs": [],
      "stateMutability": "nonpayable",
      "type": "function"
    },
    {
      "inputs": [
        {
          "internalType": "address",
          "name": "from",
          "type": "address"
        },
        {
          "internalType": "address",
          "name": "to",
          "type": "address"
        },
        {
          "internalType": "uint256",
          "name": "tokenId",
          "type": "uint256"
        },
        {
          "internalType": "bytes",
          "name": "data",
          "type": "bytes"
        }
      ],
      "name": "safeTransferFrom",
      "outputs": [],
      "stateMutability": "nonpayable",
      "type": "function"
    },
    {
      "inputs": [
        {
          "internalType": "address",
          "name": "operator",
          "type": "address"
        },
        {
          "internalType": "bool",
          "name": "approved",
          "type": "bool"
        }
      ],
      "name": "setApprovalForAll",
      "outputs": [],
      "stateMutability": "nonpayable",
      "type": "function"
    },
    {
      "inputs": [
        {
          "internalType": "bytes4",
          "name": "interfaceId",
          "type": "bytes4"
        }
      ],
      "name": "supportsInterface",
      "outputs": [
        {
          "internalType": "bool",
          "name": "",
          "type": "bool"
        }
      ],
      "stateMutability": "view",
      "type": "function"
    },
    {
      "inputs": [],
      "name": "symbol",
      "outputs": [
        {
          "internalType": "string",
          "name": "",
          "type": "string"
        }
      ],
      "stateMutability": "view",
      "type": "function"
    },
    {
      "inputs": [
        {
          "internalType": "uint256",
          "name": "tokenId",
          "type": "uint256"
        }
      ],
      "name": "tokenURI",
      "outputs": [
        {
          "internalType": "string",
          "name": "",
          "type": "string"
        }
      ],
      "stateMutability": "view",
      "type": "function"
    },
    {
      "inputs": [
        {
          "internalType": "address",
          "name": "from",
          "type": "address"
        },
        {
          "internalType": "address",
          "name": "to",
          "type": "address"
        },
        {
          "internalType": "uint256",
          "name": "tokenId",
          "type": "uint256"
        }
      ],
      "name": "transferFrom",
      "outputs": [],
      "stateMutability": "nonpayable",
      "type": "function"
    },
    {
      "inputs": [
        {
          "internalType": "address",
          "name": "newOwner",
          "type": "address"
        }
      ],
      "name": "transferOwnership",
      "outputs": [],
      "stateMutability": "nonpayable",
      "type": "function"
    }
  ],
  "bytecode": {
    "object": "0x60806040523480156200001157600080fd5b5060405162001c8a38038062001c8a833981016040819052620000349162000189565b8083836000620000458382620002a5565b506001620000548282620002a5565b50505062000068816200007260201b60201c565b5050505062000371565b600780546001600160a01b038381166001600160a01b0319831681179093556040519116919082907f8be0079c531659141344cd1fd0a4f28419497f9722a3daafe3b4186f6b6457e090600090a35050565b634e487b7160e01b600052604160045260246000fd5b600082601f830112620000ec57600080fd5b81516001600160401b0380821115620001095762000109620000c4565b604051601f8301601f19908116603f01168101908282118183101715620001345762000134620000c4565b816040528381526020925086838588010111156200015157600080fd5b600091505b8382101562000175578582018301518183018401529082019062000156565b600093810190920192909252949350505050565b6000806000606084860312156200019f57600080fd5b83516001600160401b0380821115620001b757600080fd5b620001c587838801620000da565b94506020860151915080821115620001dc57600080fd5b50620001eb86828701620000da565b604086015190935090506001600160a01b03811681146200020b57600080fd5b809150509250925092565b600181811c908216806200022b57607f821691505b6020821081036200024c57634e487b7160e01b600052602260045260246000fd5b50919050565b601f821115620002a057600081815260208120601f850160051c810160208610156200027b5750805b601f850160051c820191505b818110156200029c5782815560010162000287565b5050505b505050565b81516001600160401b03811115620002c157620002c1620000c4565b620002d981620002d2845462000216565b8462000252565b602080601f831160018114620003115760008415620002f85750858301515b600019600386901b1c1916600185901b1785556200029c565b600085815260208120601f198616915b82811015620003425788860151825594840194600190910190840162000321565b5085821015620003615787850151600019600388901b60f8161c191681555b5050505050600190811b01905550565b61190980620003816000396000f3fe608060405234801561001057600080fd5b50600436106101365760003560e01c8063715018a6116100b2578063b88d4fde11610081578063d45167d011610066578063d45167d01461027f578063e985e9c514610292578063f2fde38b146102ce57600080fd5b8063b88d4fde14610259578063c87b56dd1461026c57600080fd5b8063715018a6146102255780638da5cb5b1461022d57806395d89b411461023e578063a22cb4651461024657600080fd5b806323b872dd1161010957806342842e0e116100ee57806342842e0e146101de5780636352211e146101f157806370a082311461020457600080fd5b806323b872dd146101b857806340c10f19146101cb57600080fd5b806301ffc9a71461013b57806306fdde0314610163578063081812fc14610178578063095ea7b3146101a3575b600080fd5b61014e6101493660046114c5565b6102e1565b60405190151581526020015b60405180910390f35b61016b6102f2565b60405161015a9190611550565b61018b610186366004611563565b610384565b6040516001600160a01b03909116815260200161015a565b6101b66101b1366004611598565b6103ab565b005b6101b66101c63660046115c2565b610498565b6101b66101d9366004611598565b6104ec565b6101b66101ec3660046115c2565b6105e0565b61018b6101ff366004611563565b6105fb565b6102176102123660046115fe565b61064d565b60405190815260200161015a565b6101b66106ae565b6007546001600160a01b031661018b565b61016b6106c2565b6101b6610254366004611619565b6106d1565b6101b6610267366004611684565b6106e0565b61016b61027a366004611563565b61073b565b61018b61028d36600461177e565b610746565b61014e6102a03660046117c1565b6001600160a01b03918216600090815260056020908152604080832093909416825291909152205460ff1690565b6101b66102dc3660046115fe565b6107af565b60006102ec82610806565b92915050565b606060008054610301906117f4565b80601f016020809104026020016040519081016040528092919081815260200182805461032d906117f4565b801561037a5780601f1061034f5761010080835404028352916020019161037a565b820191906000526020600020905b81548152906001019060200180831161035d57829003601f168201915b5050505050905090565b600061038f8261085c565b506000908152600460205260409020546001600160a01b031690565b60006103b6826105fb565b9050806001600160a01b0316836001600160a01b031603610413576040517f5b08ba180000000000000000000000000000000000000000000000000000000081526001600160a01b03821660048201526024015b60405180910390fd5b336001600160a01b0382161480159061045057506001600160a01b038116600090815260056020908152604080832033845290915290205460ff16155b15610489576040517fa9fbf51f00000000000000000000000000000000000000000000000000000000815233600482015260240161040a565b61049383836108ad565b505050565b6104a23382610933565b6104e1576040517f177e802f0000000000000000000000000000000000000000000000000000000081523360048201526024810182905260440161040a565b6104938383836109b1565b60008181526008602052604090205460ff1615610565576040517f08c379a000000000000000000000000000000000000000000000000000000000815260206004820152601460248201527f546f6b656e20616c7265616479206d696e746564000000000000000000000000604482015260640161040a565b600081815260086020526040902080547fffffffffffffffffffffffffffffffffffffffffffffffffffffffffffffff001660011790556105a68282610bba565b60405181906001600160a01b038416907f3fffaa5804a26fcec0d70b1d0fb0a2d0031df3a5f9c8af2127c2f4360e97b46390600090a35050565b610493838383604051806020016040528060008152506106e0565b6000818152600260205260408120546001600160a01b0316806102ec576040517f7e2732890000000000000000000000000000000000000000000000000000000081526004810184905260240161040a565b60006001600160a01b038216610692576040517f89c62b640000000000000000000000000000000000000000000000000000000081526000600482015260240161040a565b506001600160a01b031660009081526003602052604090205490565b6106b6610d24565b6106c06000610d6a565b565b606060018054610301906117f4565b6106dc338383610dd4565b5050565b6106ea3383610933565b610729576040517f177e802f0000000000000000000000000000000000000000000000000000000081523360048201526024810183905260440161040a565b61073584848484610eb5565b50505050565b60606102ec82610f0d565b6040805160008082526020820180845287905260ff861692820192909252606081018490526080810183905260019060a0016020604051602081039080840390855afa15801561079a573d6000803e3d6000fd5b5050506020604051035190505b949350505050565b6107b7610d24565b6001600160a01b0381166107fa576040517f1e4fbdf70000000000000000000000000000000000000000000000000000000081526000600482015260240161040a565b61080381610d6a565b50565b60007fffffffff0000000000000000000000000000000000000000000000000000000082167f490649060000000000000000000000000000000000000000000000000000000014806102ec57506102ec82611015565b6000818152600260205260409020546001600160a01b0316610803576040517f7e2732890000000000000000000000000000000000000000000000000000000081526004810182905260240161040a565b600081815260046020526040902080547fffffffffffffffffffffffff0000000000000000000000000000000000000000166001600160a01b03841690811790915581906108fa826105fb565b6001600160a01b03167f8c5be1e5ebec7d5bd14f71427d1e84f3dd0314c0f7b2291e5b200ac8c7c3b92560405160405180910390a45050565b60008061093f836105fb565b9050806001600160a01b0316846001600160a01b0316148061098657506001600160a01b0380821660009081526005602090815260408083209388168352929052205460ff165b806107a75750836001600160a01b031661099f84610384565b6001600160a01b031614949350505050565b60006109bc826105fb565b9050836001600160a01b0316816001600160a01b031614610a23576040517f64283d7b0000000000000000000000000000000000000000000000000000000081526001600160a01b038086166004830152602482018490528216604482015260640161040a565b6001600160a01b038316610a66576040517f64a0ae920000000000000000000000000000000000000000000000000000000081526000600482015260240161040a565b610a6f826105fb565b9050836001600160a01b0316816001600160a01b031614610ad6576040517f64283d7b0000000000000000000000000000000000000000000000000000000081526001600160a01b038086166004830152602482018490528216604482015260640161040a565b600082815260046020908152604080832080547fffffffffffffffffffffffff00000000000000000000000000000000000000001690556001600160a01b038716835260039091528120805460019290610b31908490611847565b90915550506001600160a01b03808416600081815260036020908152604080832080546001019055868352600290915280822080547fffffffffffffffffffffffff000000000000000000000000000000000000000016841790555185938816917fddf252ad1be2c89b69c2b068fc378daa952ba7f163c4a11628f55a4df523b3ef91a4610735565b6001600160a01b038216610bfd576040517f64a0ae920000000000000000000000000000000000000000000000000000000081526000600482015260240161040a565b6000818152600260205260409020546001600160a01b031615610c4f576040517f73c6ac6e0000000000000000000000000000000000000000000000000000000081526000600482015260240161040a565b6000818152600260205260409020546001600160a01b031615610ca1576040517f73c6ac6e0000000000000000000000000000000000000000000000000000000081526000600482015260240161040a565b6001600160a01b038216600081815260036020908152604080832080546001019055848352600290915280822080547fffffffffffffffffffffffff0000000000000000000000000000000000000000168417905551839291907fddf252ad1be2c89b69c2b068fc378daa952ba7f163c4a11628f55a4df523b3ef908290a45050565b6007546001600160a01b031633146106c0576040517f118cdaa700000000000000000000000000000000000000000000000000000000815233600482015260240161040a565b600780546001600160a01b038381167fffffffffffffffffffffffff0000000000000000000000000000000000000000831681179093556040519116919082907f8be0079c531659141344cd1fd0a4f28419497f9722a3daafe3b4186f6b6457e090600090a35050565b816001600160a01b0316836001600160a01b031603610e2a576040517f5b08ba180000000000000000000000000000000000000000000000000000000081526001600160a01b038416600482015260240161040a565b6001600160a01b0383811660008181526005602090815260408083209487168084529482529182902080547fffffffffffffffffffffffffffffffffffffffffffffffffffffffffffffff001686151590811790915591519182527f17307eab39ab6107e8899845ad3d59bd9653f200f220920489ca2b5937696c31910160405180910390a3505050565b610ec08484846109b1565b610ecc848484846110f8565b610735576040517f64a0ae920000000000000000000000000000000000000000000000000000000081526001600160a01b038416600482015260240161040a565b6060610f188261085c565b60008281526006602052604081208054610f31906117f4565b80601f0160208091040260200160405190810160405280929190818152602001828054610f5d906117f4565b8015610faa5780601f10610f7f57610100808354040283529160200191610faa565b820191906000526020600020905b815481529060010190602001808311610f8d57829003601f168201915b505050505090506000610fc860408051602081019091526000815290565b90508051600003610fda575092915050565b81511561100c578082604051602001610ff4929190611881565b60405160208183030381529060405292505050919050565b6107a784611283565b60007fffffffff0000000000000000000000000000000000000000000000000000000082167f80ac58cd0000000000000000000000000000000000000000000000000000000014806110a857507fffffffff0000000000000000000000000000000000000000000000000000000082167f5b5e139f00000000000000000000000000000000000000000000000000000000145b806102ec57507f01ffc9a7000000000000000000000000000000000000000000000000000000007fffffffff000000000000000000000000000000000000000000000000000000008316146102ec565b60006001600160a01b0384163b1561127b576040517f150b7a020000000000000000000000000000000000000000000000000000000081526001600160a01b0385169063150b7a02906111559033908990889088906004016118b0565b6020604051808303816000875af19250505080156111ae575060408051601f3d9081017fffffffffffffffffffffffffffffffffffffffffffffffffffffffffffffffe01682019092526111ab918101906118ec565b60015b611230573d8080156111dc576040519150601f19603f3d011682016040523d82523d6000602084013e6111e1565b606091505b508051600003611228576040517f64a0ae920000000000000000000000000000000000000000000000000000000081526001600160a01b038616600482015260240161040a565b805181602001fd5b7fffffffff00000000000000000000000000000000000000000000000000000000167f150b7a02000000000000000000000000000000000000000000000000000000001490506107a7565b5060016107a7565b606061128e8261085c565b60006112a560408051602081019091526000815290565b905060008151116112c557604051806020016040528060008152506112f0565b806112cf846112f7565b6040516020016112e0929190611881565b6040516020818303038152906040525b9392505050565b60606000611304836113b5565b600101905060008167ffffffffffffffff81111561132457611324611655565b6040519080825280601f01601f19166020018201604052801561134e576020820181803683370190505b5090508181016020015b7fffffffffffffffffffffffffffffffffffffffffffffffffffffffffffffffff017f3031323334353637383961626364656600000000000000000000000000000000600a86061a8153600a850494508461135857509392505050565b6000807a184f03e93ff9f4daa797ed6e38ed64bf6a1f01000000000000000083106113fe577a184f03e93ff9f4daa797ed6e38ed64bf6a1f010000000000000000830492506040015b6d04ee2d6d415b85acef8100000000831061142a576d04ee2d6d415b85acef8100000000830492506020015b662386f26fc10000831061144857662386f26fc10000830492506010015b6305f5e1008310611460576305f5e100830492506008015b612710831061147457612710830492506004015b60648310611486576064830492506002015b600a83106102ec5760010192915050565b7fffffffff000000000000000000000000000000000000000000000000000000008116811461080357600080fd5b6000602082840312156114d757600080fd5b81356112f081611497565b60005b838110156114fd5781810151838201526020016114e5565b50506000910152565b6000815180845261151e8160208601602086016114e2565b601f017fffffffffffffffffffffffffffffffffffffffffffffffffffffffffffffffe0169290920160200192915050565b6020815260006112f06020830184611506565b60006020828403121561157557600080fd5b5035919050565b80356001600160a01b038116811461159357600080fd5b919050565b600080604083850312156115ab57600080fd5b6115b48361157c565b946020939093013593505050565b6000806000606084860312156115d757600080fd5b6115e08461157c565b92506115ee6020850161157c565b9150604084013590509250925092565b60006020828403121561161057600080fd5b6112f08261157c565b6000806040838503121561162c57600080fd5b6116358361157c565b91506020830135801515811461164a57600080fd5b809150509250929050565b7f4e487b7100000000000000000000000000000000000000000000000000000000600052604160045260246000fd5b6000806000806080858703121561169a57600080fd5b6116a38561157c565b93506116b16020860161157c565b925060408501359150606085013567ffffffffffffffff808211156116d557600080fd5b818701915087601f8301126116e957600080fd5b8135818111156116fb576116fb611655565b604051601f82017fffffffffffffffffffffffffffffffffffffffffffffffffffffffffffffffe0908116603f0116810190838211818310171561174157611741611655565b816040528281528a602084870101111561175a57600080fd5b82602086016020830137600060208483010152809550505050505092959194509250565b6000806000806080858703121561179457600080fd5b84359350602085013560ff811681146117ac57600080fd5b93969395505050506040820135916060013590565b600080604083850312156117d457600080fd5b6117dd8361157c565b91506117eb6020840161157c565b90509250929050565b600181811c9082168061180857607f821691505b602082108103611841577f4e487b7100000000000000000000000000000000000000000000000000000000600052602260045260246000fd5b50919050565b818103818111156102ec577f4e487b7100000000000000000000000000000000000000000000000000000000600052601160045260246000fd5b600083516118938184602088016114e2565b8351908301906118a78183602088016114e2565b01949350505050565b60006001600160a01b038087168352808616602084015250836040830152608060608301526118e26080830184611506565b9695505050505050565b6000602082840312156118fe57600080fd5b81516112f08161149756",
    "linkReferences": {}
  },
  "methodIdentifiers": {
    "approve(address,uint256)": "095ea7b3",
    "balanceOf(address)": "70a08231",
    "getApproved(uint256)": "081812fc",
    "isApprovedForAll(address,address)": "e985e9c5",
    "mint(address,uint256)": "40c10f19",
    "name()": "06fdde03",
    "owner()": "8da5cb5b",
    "ownerOf(uint256)": "6352211e",
    "recoverSigner(bytes32,uint8,bytes32,bytes32)": "d45167d0",
    "renounceOwnership()": "715018a6",
    "safeTransferFrom(address,address,uint256)": "42842e0e",
    "safeTransferFrom(address,address,uint256,bytes)": "b88d4fde",
    "setApprovalForAll(address,bool)": "a22cb465",
    "supportsInterface(bytes4)": "01ffc9a7",
    "symbol()": "95d89b41",
    "tokenURI(uint256)": "c87b56dd",
    "transferFrom(address,address,uint256)": "23b872dd",
    "transferOwnership(address)": "f2fde38b"
  },
  "id": 37
}